{
  "_format": "hh-sol-artifact-1",
  "contractName": "FogPuzzle",
  "sourceName": "contracts/FogPuzzle.sol",
  "abi": [
    {
      "inputs": [
        {
          "internalType": "uint256",
          "name": "_fogLevel",
          "type": "uint256"
        }
      ],
      "stateMutability": "nonpayable",
      "type": "constructor"
    },
    {
      "anonymous": false,
      "inputs": [
        {
          "indexed": false,
          "internalType": "uint256",
          "name": "newLevel",
          "type": "uint256"
        }
      ],
      "name": "FogLevelChanged",
      "type": "event"
    },
    {
      "anonymous": false,
      "inputs": [
        {
          "indexed": false,
          "internalType": "uint256",
          "name": "puzzleId",
          "type": "uint256"
        }
      ],
      "name": "PuzzleAdded",
      "type": "event"
    },
    {
      "anonymous": false,
      "inputs": [
        {
          "indexed": false,
          "internalType": "address",
          "name": "player",
          "type": "address"
        },
        {
          "indexed": false,
          "internalType": "uint256",
          "name": "puzzleId",
          "type": "uint256"
        }
      ],
      "name": "PuzzleSolved",
      "type": "event"
    },
    {
      "anonymous": false,
      "inputs": [
        {
          "indexed": false,
          "internalType": "address",
          "name": "player",
          "type": "address"
        },
        {
          "indexed": false,
          "internalType": "uint256",
          "name": "amount",
          "type": "uint256"
        }
      ],
      "name": "RewardGiven",
      "type": "event"
    },
    {
      "inputs": [],
      "name": "applyFogPenalty",
      "outputs": [],
      "stateMutability": "nonpayable",
      "type": "function"
    },
    {
      "inputs": [],
      "name": "fogLevel",
      "outputs": [
        {
          "internalType": "uint256",
          "name": "",
          "type": "uint256"
        }
      ],
      "stateMutability": "view",
      "type": "function"
    },
    {
      "inputs": [],
      "name": "owner",
      "outputs": [
        {
          "internalType": "address",
          "name": "",
          "type": "address"
        }
      ],
      "stateMutability": "view",
      "type": "function"
    },
    {
      "inputs": [
        {
          "internalType": "address",
          "name": "",
          "type": "address"
        }
      ],
      "name": "playerProgress",
      "outputs": [
        {
          "internalType": "uint256",
          "name": "",
          "type": "uint256"
        }
      ],
      "stateMutability": "view",
      "type": "function"
    },
    {
      "inputs": [
        {
          "internalType": "address",
          "name": "",
          "type": "address"
        }
      ],
      "name": "playerRewards",
      "outputs": [
        {
          "internalType": "uint256",
          "name": "",
          "type": "uint256"
        }
      ],
      "stateMutability": "view",
      "type": "function"
    },
    {
      "inputs": [
        {
          "internalType": "uint256",
          "name": "_newFogLevel",
          "type": "uint256"
        }
      ],
      "name": "setFogLevel",
      "outputs": [],
      "stateMutability": "nonpayable",
      "type": "function"
    },
    {
      "inputs": [
        {
          "internalType": "uint256",
          "name": "_puzzleId",
          "type": "uint256"
        },
        {
          "internalType": "string",
          "name": "_solution",
          "type": "string"
        }
      ],
      "name": "setPuzzleSolution",
      "outputs": [],
      "stateMutability": "nonpayable",
      "type": "function"
    },
    {
      "inputs": [
        {
          "internalType": "uint256",
          "name": "_puzzleId",
          "type": "uint256"
        },
        {
          "internalType": "string",
          "name": "_solution",
          "type": "string"
        }
      ],
      "name": "verifyPuzzleSolution",
      "outputs": [],
      "stateMutability": "nonpayable",
      "type": "function"
    }
  ],
  "bytecode": "0x6080604052348015600f57600080fd5b50604051610c27380380610c278339818101604052810190602f919060b2565b8060028190555033600460006101000a81548173ffffffffffffffffffffffffffffffffffffffff021916908373ffffffffffffffffffffffffffffffffffffffff1602179055505060da565b600080fd5b6000819050919050565b6092816081565b8114609c57600080fd5b50565b60008151905060ac81608b565b92915050565b60006020828403121560c55760c4607c565b5b600060d184828501609f565b91505092915050565b610b3e806100e96000396000f3fe608060405234801561001057600080fd5b50600436106100885760003560e01c80638da5cb5b1161005b5780638da5cb5b146100ed578063e7ed56251461010b578063ec7eba051461013b578063fd55fae61461016b57610088565b806302e6a7121461008d57806312a0b21a146100ab5780631ab9a4dd146100c75780635f7cd45f146100e3575b600080fd5b610095610187565b6040516100a291906105c0565b60405180910390f35b6100c560048036038101906100c09190610761565b61018d565b005b6100e160048036038101906100dc9190610761565b61031f565b005b6100eb610398565b005b6100f56103ed565b60405161010291906107fe565b60405180910390f35b61012560048036038101906101209190610845565b610413565b60405161013291906105c0565b60405180910390f35b61015560048036038101906101509190610845565b61042b565b60405161016291906105c0565b60405180910390f35b61018560048036038101906101809190610872565b610443565b005b60025481565b60016000803373ffffffffffffffffffffffffffffffffffffffff1673ffffffffffffffffffffffffffffffffffffffff168152602001908152602001600020546101d891906108ce565b8214610219576040517f08c379a00000000000000000000000000000000000000000000000000000000081526004016102109061095f565b60405180910390fd5b60016000838152602001908152602001600020548160405160200161023e91906109f0565b6040516020818303038152906040528051906020012014610294576040517f08c379a000000000000000000000000000000000000000000000000000000000815260040161028b90610a53565b60405180910390fd5b816000803373ffffffffffffffffffffffffffffffffffffffff1673ffffffffffffffffffffffffffffffffffffffff168152602001908152602001600020819055506102e233600a610514565b7f22b085018587880beba787d68171f97ee067c34bc68ba6389c2cfce32c29aa6a3383604051610313929190610a73565b60405180910390a15050565b8060405160200161033091906109f0565b6040516020818303038152906040528051906020012060016000848152602001908152602001600020819055507f1385d33eb74b53451bc6992ccd58d47f270d23ed942f85e18dfbeea1541985de8260405161038c91906105c0565b60405180910390a15050565b6001600260008282546103ab91906108ce565b925050819055507faac01fa6b777527b5250a0af0fd7b3e7ce497de5e00a2ddea4734f89727fdfff6002546040516103e391906105c0565b60405180910390a1565b600460009054906101000a900473ffffffffffffffffffffffffffffffffffffffff1681565b60036020528060005260406000206000915090505481565b60006020528060005260406000206000915090505481565b600460009054906101000a900473ffffffffffffffffffffffffffffffffffffffff1673ffffffffffffffffffffffffffffffffffffffff163373ffffffffffffffffffffffffffffffffffffffff16146104d3576040517f08c379a00000000000000000000000000000000000000000000000000000000081526004016104ca90610ae8565b60405180910390fd5b806002819055507faac01fa6b777527b5250a0af0fd7b3e7ce497de5e00a2ddea4734f89727fdfff8160405161050991906105c0565b60405180910390a150565b80600360008473ffffffffffffffffffffffffffffffffffffffff1673ffffffffffffffffffffffffffffffffffffffff168152602001908152602001600020600082825461056391906108ce565b925050819055507f3ad0c8d1bbd63d54c5f14180eae95cab7c2420b2dbb90603a6e5d206668f52ec828260405161059b929190610a73565b60405180910390a15050565b6000819050919050565b6105ba816105a7565b82525050565b60006020820190506105d560008301846105b1565b92915050565b6000604051905090565b600080fd5b600080fd5b6105f8816105a7565b811461060357600080fd5b50565b600081359050610615816105ef565b92915050565b600080fd5b600080fd5b6000601f19601f8301169050919050565b7f4e487b7100000000000000000000000000000000000000000000000000000000600052604160045260246000fd5b61066e82610625565b810181811067ffffffffffffffff8211171561068d5761068c610636565b5b80604052505050565b60006106a06105db565b90506106ac8282610665565b919050565b600067ffffffffffffffff8211156106cc576106cb610636565b5b6106d582610625565b9050602081019050919050565b82818337600083830152505050565b60006107046106ff846106b1565b610696565b9050828152602081018484840111156107205761071f610620565b5b61072b8482856106e2565b509392505050565b600082601f8301126107485761074761061b565b5b81356107588482602086016106f1565b91505092915050565b60008060408385031215610778576107776105e5565b5b600061078685828601610606565b925050602083013567ffffffffffffffff8111156107a7576107a66105ea565b5b6107b385828601610733565b9150509250929050565b600073ffffffffffffffffffffffffffffffffffffffff82169050919050565b60006107e8826107bd565b9050919050565b6107f8816107dd565b82525050565b600060208201905061081360008301846107ef565b92915050565b610822816107dd565b811461082d57600080fd5b50565b60008135905061083f81610819565b92915050565b60006020828403121561085b5761085a6105e5565b5b600061086984828501610830565b91505092915050565b600060208284031215610888576108876105e5565b5b600061089684828501610606565b91505092915050565b7f4e487b7100000000000000000000000000000000000000000000000000000000600052601160045260246000fd5b60006108d9826105a7565b91506108e4836105a7565b92508282019050808211156108fc576108fb61089f565b5b92915050565b600082825260208201905092915050565b7f57726f6e672070757a7a6c652073657175656e63650000000000000000000000600082015250565b6000610949601583610902565b915061095482610913565b602082019050919050565b600060208201905081810360008301526109788161093c565b9050919050565b600081519050919050565b600081905092915050565b60005b838110156109b3578082015181840152602081019050610998565b60008484015250505050565b60006109ca8261097f565b6109d4818561098a565b93506109e4818560208601610995565b80840191505092915050565b60006109fc82846109bf565b915081905092915050565b7f496e636f727265637420736f6c7574696f6e0000000000000000000000000000600082015250565b6000610a3d601283610902565b9150610a4882610a07565b602082019050919050565b60006020820190508181036000830152610a6c81610a30565b9050919050565b6000604082019050610a8860008301856107ef565b610a9560208301846105b1565b9392505050565b7f4f6e6c7920746865206f776e65722063616e2073657420666f67206c6576656c600082015250565b6000610ad2602083610902565b9150610add82610a9c565b602082019050919050565b60006020820190508181036000830152610b0181610ac5565b905091905056fea26469706673582212205dc9fd9f2ef736f59d4e1d395fddac7e789e8f95e19dda28e3117f09e774ffec64736f6c634300081b0033",
  "linkReferences": {},
  "deployedLinkReferences": {}
}